{
  "contractName": "NonFungibleApesV2",
  "abi": [
    {
      "inputs": [
        {
          "internalType": "string",
          "name": "name",
          "type": "string"
        },
        {
          "internalType": "string",
          "name": "symbol",
          "type": "string"
        },
        {
          "internalType": "string",
          "name": "baseTokenURI",
          "type": "string"
        }
      ],
      "stateMutability": "nonpayable",
      "type": "constructor"
    },
    {
      "anonymous": false,
      "inputs": [
        {
          "indexed": true,
          "internalType": "address",
          "name": "owner",
          "type": "address"
        },
        {
          "indexed": true,
          "internalType": "address",
          "name": "approved",
          "type": "address"
        },
        {
          "indexed": true,
          "internalType": "uint256",
          "name": "tokenId",
          "type": "uint256"
        }
      ],
      "name": "Approval",
      "type": "event"
    },
    {
      "anonymous": false,
      "inputs": [
        {
          "indexed": true,
          "internalType": "address",
          "name": "owner",
          "type": "address"
        },
        {
          "indexed": true,
          "internalType": "address",
          "name": "operator",
          "type": "address"
        },
        {
          "indexed": false,
          "internalType": "bool",
          "name": "approved",
          "type": "bool"
        }
      ],
      "name": "ApprovalForAll",
      "type": "event"
    },
    {
      "anonymous": false,
      "inputs": [
        {
          "indexed": true,
          "internalType": "bytes32",
          "name": "role",
          "type": "bytes32"
        },
        {
          "indexed": true,
          "internalType": "bytes32",
          "name": "previousAdminRole",
          "type": "bytes32"
        },
        {
          "indexed": true,
          "internalType": "bytes32",
          "name": "newAdminRole",
          "type": "bytes32"
        }
      ],
      "name": "RoleAdminChanged",
      "type": "event"
    },
    {
      "anonymous": false,
      "inputs": [
        {
          "indexed": true,
          "internalType": "bytes32",
          "name": "role",
          "type": "bytes32"
        },
        {
          "indexed": true,
          "internalType": "address",
          "name": "account",
          "type": "address"
        },
        {
          "indexed": true,
          "internalType": "address",
          "name": "sender",
          "type": "address"
        }
      ],
      "name": "RoleGranted",
      "type": "event"
    },
    {
      "anonymous": false,
      "inputs": [
        {
          "indexed": true,
          "internalType": "bytes32",
          "name": "role",
          "type": "bytes32"
        },
        {
          "indexed": true,
          "internalType": "address",
          "name": "account",
          "type": "address"
        },
        {
          "indexed": true,
          "internalType": "address",
          "name": "sender",
          "type": "address"
        }
      ],
      "name": "RoleRevoked",
      "type": "event"
    },
    {
      "anonymous": false,
      "inputs": [
        {
          "indexed": true,
          "internalType": "address",
          "name": "from",
          "type": "address"
        },
        {
          "indexed": true,
          "internalType": "address",
          "name": "to",
          "type": "address"
        },
        {
          "indexed": true,
          "internalType": "uint256",
          "name": "tokenId",
          "type": "uint256"
        }
      ],
      "name": "Transfer",
      "type": "event"
    },
    {
      "anonymous": false,
      "inputs": [
        {
          "indexed": true,
          "internalType": "string",
          "name": "previousBaseUri",
          "type": "string"
        },
        {
          "indexed": true,
          "internalType": "string",
          "name": "newBaseUri",
          "type": "string"
        }
      ],
      "name": "UpdateBaseURI",
      "type": "event"
    },
    {
      "inputs": [],
      "name": "DEFAULT_ADMIN_ROLE",
      "outputs": [
        {
          "internalType": "bytes32",
          "name": "",
          "type": "bytes32"
        }
      ],
      "stateMutability": "view",
      "type": "function",
      "constant": true
    },
    {
      "inputs": [],
      "name": "MINTER_ROLE",
      "outputs": [
        {
          "internalType": "bytes32",
          "name": "",
          "type": "bytes32"
        }
      ],
      "stateMutability": "view",
      "type": "function",
      "constant": true
    },
    {
      "inputs": [
        {
          "internalType": "address",
          "name": "to",
          "type": "address"
        },
        {
          "internalType": "uint256",
          "name": "tokenId",
          "type": "uint256"
        }
      ],
      "name": "approve",
      "outputs": [],
      "stateMutability": "nonpayable",
      "type": "function"
    },
    {
      "inputs": [
        {
          "internalType": "address",
          "name": "owner",
          "type": "address"
        }
      ],
      "name": "balanceOf",
      "outputs": [
        {
          "internalType": "uint256",
          "name": "",
          "type": "uint256"
        }
      ],
      "stateMutability": "view",
      "type": "function",
      "constant": true
    },
    {
      "inputs": [
        {
          "internalType": "uint256",
          "name": "tokenId",
          "type": "uint256"
        }
      ],
      "name": "getApproved",
      "outputs": [
        {
          "internalType": "address",
          "name": "",
          "type": "address"
        }
      ],
      "stateMutability": "view",
      "type": "function",
      "constant": true
    },
    {
      "inputs": [
        {
          "internalType": "uint256",
          "name": "",
          "type": "uint256"
        }
      ],
      "name": "getNFADetailsById",
      "outputs": [
        {
          "internalType": "uint128",
          "name": "rarityTier",
          "type": "uint128"
        },
        {
          "internalType": "uint128",
          "name": "rarityOverall",
          "type": "uint128"
        },
        {
          "internalType": "string",
          "name": "name",
          "type": "string"
        },
        {
          "internalType": "string",
          "name": "faceColor",
          "type": "string"
        },
        {
          "internalType": "string",
          "name": "baseColor",
          "type": "string"
        },
        {
          "internalType": "string",
          "name": "frame",
          "type": "string"
        },
        {
          "internalType": "string",
          "name": "mouth",
          "type": "string"
        },
        {
          "internalType": "string",
          "name": "eyes",
          "type": "string"
        },
        {
          "internalType": "string",
          "name": "hat",
          "type": "string"
        }
      ],
      "stateMutability": "view",
      "type": "function",
      "constant": true
    },
    {
      "inputs": [
        {
          "internalType": "bytes32",
          "name": "role",
          "type": "bytes32"
        }
      ],
      "name": "getRoleAdmin",
      "outputs": [
        {
          "internalType": "bytes32",
          "name": "",
          "type": "bytes32"
        }
      ],
      "stateMutability": "view",
      "type": "function",
      "constant": true
    },
    {
      "inputs": [
        {
          "internalType": "bytes32",
          "name": "role",
          "type": "bytes32"
        },
        {
          "internalType": "uint256",
          "name": "index",
          "type": "uint256"
        }
      ],
      "name": "getRoleMember",
      "outputs": [
        {
          "internalType": "address",
          "name": "",
          "type": "address"
        }
      ],
      "stateMutability": "view",
      "type": "function",
      "constant": true
    },
    {
      "inputs": [
        {
          "internalType": "bytes32",
          "name": "role",
          "type": "bytes32"
        }
      ],
      "name": "getRoleMemberCount",
      "outputs": [
        {
          "internalType": "uint256",
          "name": "",
          "type": "uint256"
        }
      ],
      "stateMutability": "view",
      "type": "function",
      "constant": true
    },
    {
      "inputs": [
        {
          "internalType": "bytes32",
          "name": "role",
          "type": "bytes32"
        },
        {
          "internalType": "address",
          "name": "account",
          "type": "address"
        }
      ],
      "name": "grantRole",
      "outputs": [],
      "stateMutability": "nonpayable",
      "type": "function"
    },
    {
      "inputs": [
        {
          "internalType": "bytes32",
          "name": "role",
          "type": "bytes32"
        },
        {
          "internalType": "address",
          "name": "account",
          "type": "address"
        }
      ],
      "name": "hasRole",
      "outputs": [
        {
          "internalType": "bool",
          "name": "",
          "type": "bool"
        }
      ],
      "stateMutability": "view",
      "type": "function",
      "constant": true
    },
    {
      "inputs": [
        {
          "internalType": "address",
          "name": "owner",
          "type": "address"
        },
        {
          "internalType": "address",
          "name": "operator",
          "type": "address"
        }
      ],
      "name": "isApprovedForAll",
      "outputs": [
        {
          "internalType": "bool",
          "name": "",
          "type": "bool"
        }
      ],
      "stateMutability": "view",
      "type": "function",
      "constant": true
    },
    {
      "inputs": [],
      "name": "name",
      "outputs": [
        {
          "internalType": "string",
          "name": "",
          "type": "string"
        }
      ],
      "stateMutability": "view",
      "type": "function",
      "constant": true
    },
    {
      "inputs": [
        {
          "internalType": "uint256",
          "name": "tokenId",
          "type": "uint256"
        }
      ],
      "name": "ownerOf",
      "outputs": [
        {
          "internalType": "address",
          "name": "",
          "type": "address"
        }
      ],
      "stateMutability": "view",
      "type": "function",
      "constant": true
    },
    {
      "inputs": [
        {
          "internalType": "bytes32",
          "name": "role",
          "type": "bytes32"
        },
        {
          "internalType": "address",
          "name": "account",
          "type": "address"
        }
      ],
      "name": "renounceRole",
      "outputs": [],
      "stateMutability": "nonpayable",
      "type": "function"
    },
    {
      "inputs": [
        {
          "internalType": "bytes32",
          "name": "role",
          "type": "bytes32"
        },
        {
          "internalType": "address",
          "name": "account",
          "type": "address"
        }
      ],
      "name": "revokeRole",
      "outputs": [],
      "stateMutability": "nonpayable",
      "type": "function"
    },
    {
      "inputs": [
        {
          "internalType": "address",
          "name": "from",
          "type": "address"
        },
        {
          "internalType": "address",
          "name": "to",
          "type": "address"
        },
        {
          "internalType": "uint256",
          "name": "tokenId",
          "type": "uint256"
        }
      ],
      "name": "safeTransferFrom",
      "outputs": [],
      "stateMutability": "nonpayable",
      "type": "function"
    },
    {
      "inputs": [
        {
          "internalType": "address",
          "name": "from",
          "type": "address"
        },
        {
          "internalType": "address",
          "name": "to",
          "type": "address"
        },
        {
          "internalType": "uint256",
          "name": "tokenId",
          "type": "uint256"
        },
        {
          "internalType": "bytes",
          "name": "_data",
          "type": "bytes"
        }
      ],
      "name": "safeTransferFrom",
      "outputs": [],
      "stateMutability": "nonpayable",
      "type": "function"
    },
    {
      "inputs": [
        {
          "internalType": "address",
          "name": "operator",
          "type": "address"
        },
        {
          "internalType": "bool",
          "name": "approved",
          "type": "bool"
        }
      ],
      "name": "setApprovalForAll",
      "outputs": [],
      "stateMutability": "nonpayable",
      "type": "function"
    },
    {
      "inputs": [],
      "name": "symbol",
      "outputs": [
        {
          "internalType": "string",
          "name": "",
          "type": "string"
        }
      ],
      "stateMutability": "view",
      "type": "function",
      "constant": true
    },
    {
      "inputs": [
        {
          "internalType": "uint256",
          "name": "index",
          "type": "uint256"
        }
      ],
      "name": "tokenByIndex",
      "outputs": [
        {
          "internalType": "uint256",
          "name": "",
          "type": "uint256"
        }
      ],
      "stateMutability": "view",
      "type": "function",
      "constant": true
    },
    {
      "inputs": [
        {
          "internalType": "address",
          "name": "owner",
          "type": "address"
        },
        {
          "internalType": "uint256",
          "name": "index",
          "type": "uint256"
        }
      ],
      "name": "tokenOfOwnerByIndex",
      "outputs": [
        {
          "internalType": "uint256",
          "name": "",
          "type": "uint256"
        }
      ],
      "stateMutability": "view",
      "type": "function",
      "constant": true
    },
    {
      "inputs": [
        {
          "internalType": "uint256",
          "name": "tokenId",
          "type": "uint256"
        }
      ],
      "name": "tokenURI",
      "outputs": [
        {
          "internalType": "string",
          "name": "",
          "type": "string"
        }
      ],
      "stateMutability": "view",
      "type": "function",
      "constant": true
    },
    {
      "inputs": [],
      "name": "totalSupply",
      "outputs": [
        {
          "internalType": "uint256",
          "name": "",
          "type": "uint256"
        }
      ],
      "stateMutability": "view",
      "type": "function",
      "constant": true
    },
    {
      "inputs": [
        {
          "internalType": "address",
          "name": "from",
          "type": "address"
        },
        {
          "internalType": "address",
          "name": "to",
          "type": "address"
        },
        {
          "internalType": "uint256",
          "name": "tokenId",
          "type": "uint256"
        }
      ],
      "name": "transferFrom",
      "outputs": [],
      "stateMutability": "nonpayable",
      "type": "function"
    },
    {
      "inputs": [
        {
          "internalType": "uint256",
          "name": "tokenId",
          "type": "uint256"
        },
        {
          "internalType": "uint256",
          "name": "rarityTier",
          "type": "uint256"
        }
      ],
      "name": "isNfaOfRarityTier",
      "outputs": [
        {
          "internalType": "bool",
          "name": "",
          "type": "bool"
        }
      ],
      "stateMutability": "view",
      "type": "function",
      "constant": true
    },
    {
      "inputs": [
        {
          "internalType": "string",
          "name": "baseTokenURI",
          "type": "string"
        }
      ],
      "name": "updateBaseTokenURI",
      "outputs": [],
      "stateMutability": "nonpayable",
      "type": "function"
    },
    {
      "inputs": [
        {
          "internalType": "address",
          "name": "to",
          "type": "address"
        },
        {
          "internalType": "string",
          "name": "name",
          "type": "string"
        },
        {
          "internalType": "uint128[2]",
          "name": "rarities",
          "type": "uint128[2]"
        },
        {
          "internalType": "string[6]",
          "name": "attributes",
          "type": "string[6]"
        }
      ],
      "name": "mint",
      "outputs": [],
      "stateMutability": "nonpayable",
      "type": "function"
    },
    {
      "inputs": [
        {
          "internalType": "bytes4",
          "name": "interfaceId",
          "type": "bytes4"
        }
      ],
      "name": "supportsInterface",
      "outputs": [
        {
          "internalType": "bool",
          "name": "",
          "type": "bool"
        }
      ],
      "stateMutability": "view",
      "type": "function",
      "constant": true
    }
  ],
  "bytecode": "0x60806040523480156200001157600080fd5b5060405162005b2638038062005b268339818101604052810190620000379190620004ac565b82828160029080519060200190620000519291906200038a565b5080600390805190602001906200006a9291906200038a565b50505080600d9080519060200190620000859291906200038a565b50620000aa6000801b6200009e620000f460201b60201c565b620000fc60201b60201c565b620000eb7f9f2df0fed2c77648de5860a4cc508cd0818c85b8b8a1ab4ceeef8d981c8956a6620000df620000f460201b60201c565b620000fc60201b60201c565b505050620006bd565b600033905090565b6200011382826200014460201b62001eb81760201c565b6200013f81600160008581526020019081526020016000206200015a60201b62001ec61790919060201c565b505050565b6200015682826200019260201b60201c565b5050565b60006200018a836000018373ffffffffffffffffffffffffffffffffffffffff1660001b6200028360201b60201c565b905092915050565b620001a48282620002fd60201b60201c565b6200027f57600160008084815260200190815260200160002060000160008373ffffffffffffffffffffffffffffffffffffffff1673ffffffffffffffffffffffffffffffffffffffff16815260200190815260200160002060006101000a81548160ff02191690831515021790555062000224620000f460201b60201c565b73ffffffffffffffffffffffffffffffffffffffff168173ffffffffffffffffffffffffffffffffffffffff16837f2f8788117e7eff1d82e926ec794901d17c78024a50270940304540a733656f0d60405160405180910390a45b5050565b60006200029783836200036760201b60201c565b620002f2578260000182908060018154018082558091505060019003906000526020600020016000909190919091505582600001805490508360010160008481526020019081526020016000208190555060019050620002f7565b600090505b92915050565b600080600084815260200190815260200160002060000160008373ffffffffffffffffffffffffffffffffffffffff1673ffffffffffffffffffffffffffffffffffffffff16815260200190815260200160002060009054906101000a900460ff16905092915050565b600080836001016000848152602001908152602001600020541415905092915050565b8280546200039890620005e2565b90600052602060002090601f016020900481019282620003bc576000855562000408565b82601f10620003d757805160ff191683800117855562000408565b8280016001018555821562000408579182015b8281111562000407578251825591602001919060010190620003ea565b5b5090506200041791906200041b565b5090565b5b80821115620004365760008160009055506001016200041c565b5090565b6000620004516200044b8462000576565b6200054d565b9050828152602081018484840111156200046a57600080fd5b62000477848285620005ac565b509392505050565b600082601f8301126200049157600080fd5b8151620004a38482602086016200043a565b91505092915050565b600080600060608486031215620004c257600080fd5b600084015167ffffffffffffffff811115620004dd57600080fd5b620004eb868287016200047f565b935050602084015167ffffffffffffffff8111156200050957600080fd5b62000517868287016200047f565b925050604084015167ffffffffffffffff8111156200053557600080fd5b62000543868287016200047f565b9150509250925092565b6000620005596200056c565b905062000567828262000618565b919050565b6000604051905090565b600067ffffffffffffffff8211156200059457620005936200067d565b5b6200059f82620006ac565b9050602081019050919050565b60005b83811015620005cc578082015181840152602081019050620005af565b83811115620005dc576000848401525b50505050565b60006002820490506001821680620005fb57607f821691505b602082108114156200061257620006116200064e565b5b50919050565b6200062382620006ac565b810181811067ffffffffffffffff821117156200064557620006446200067d565b5b80604052505050565b7f4e487b7100000000000000000000000000000000000000000000000000000000600052602260045260246000fd5b7f4e487b7100000000000000000000000000000000000000000000000000000000600052604160045260246000fd5b6000601f19601f8301169050919050565b61545980620006cd6000396000f3fe608060405234801561001057600080fd5b50600436106101cf5760003560e01c80636352211e11610104578063a22cb465116100a2578063d539139311610071578063d5391393146105a4578063d547741f146105c2578063de6474eb146105de578063e985e9c5146105fa576101cf565b8063a22cb4651461050c578063b88d4fde14610528578063c87b56dd14610544578063ca15c87314610574576101cf565b80639010d07c116100de5780639010d07c1461047057806391d14854146104a057806395d89b41146104d0578063a217fddf146104ee576101cf565b80636352211e146103f4578063655391c91461042457806370a0823114610440576101cf565b8063248a9ca311610171578063353036d81161014b578063353036d81461035c57806336568abe1461038c57806342842e0e146103a85780634f6ccce7146103c4576101cf565b8063248a9ca3146102e05780632f2ff15d146103105780632f745c591461032c576101cf565b8063095ea7b3116101ad578063095ea7b3146102525780630ce2915f1461026e57806318160ddd146102a657806323b872dd146102c4576101cf565b806301ffc9a7146101d457806306fdde0314610204578063081812fc14610222575b600080fd5b6101ee60048036038101906101e99190613fdc565b61062a565b6040516101fb91906145f0565b60405180910390f35b61020c61063c565b6040516102199190614626565b60405180910390f35b61023c6004803603810190610237919061406f565b6106ce565b6040516102499190614589565b60405180910390f35b61026c60048036038101906102679190613eff565b610753565b005b6102886004803603810190610283919061406f565b61086b565b60405161029d99989796959493929190614888565b60405180910390f35b6102ae610ca9565b6040516102bb9190614946565b60405180910390f35b6102de60048036038101906102d99190613d66565b610cb6565b005b6102fa60048036038101906102f59190613f3b565b610d16565b604051610307919061460b565b60405180910390f35b61032a60048036038101906103259190613f64565b610d35565b005b61034660048036038101906103419190613eff565b610d69565b6040516103539190614946565b60405180910390f35b61037660048036038101906103719190614098565b610e0e565b60405161038391906145f0565b60405180910390f35b6103a660048036038101906103a19190613f64565b6112fe565b005b6103c260048036038101906103bd9190613d66565b611332565b005b6103de60048036038101906103d9919061406f565b611352565b6040516103eb9190614946565b60405180910390f35b61040e6004803603810190610409919061406f565b6113e9565b60405161041b9190614589565b60405180910390f35b61043e6004803603810190610439919061402e565b61149b565b005b61045a60048036038101906104559190613d01565b611524565b6040516104679190614946565b60405180910390f35b61048a60048036038101906104859190613fa0565b6115dc565b6040516104979190614589565b60405180910390f35b6104ba60048036038101906104b59190613f64565b61160b565b6040516104c791906145f0565b60405180910390f35b6104d8611675565b6040516104e59190614626565b60405180910390f35b6104f6611707565b604051610503919061460b565b60405180910390f35b61052660048036038101906105219190613e30565b61170e565b005b610542600480360381019061053d9190613db5565b61188f565b005b61055e6004803603810190610559919061406f565b6118f1565b60405161056b9190614626565b60405180910390f35b61058e60048036038101906105899190613f3b565b611998565b60405161059b9190614946565b60405180910390f35b6105ac6119bc565b6040516105b9919061460b565b60405180910390f35b6105dc60048036038101906105d79190613f64565b6119e0565b005b6105f860048036038101906105f39190613e6c565b611a14565b005b610614600480360381019061060f9190613d2a565b611e24565b60405161062191906145f0565b60405180910390f35b600061063582611ef6565b9050919050565b60606002805461064b90614ca7565b80601f016020809104026020016040519081016040528092919081815260200182805461067790614ca7565b80156106c45780601f10610699576101008083540402835291602001916106c4565b820191906000526020600020905b8154815290600101906020018083116106a757829003601f168201915b5050505050905090565b60006106d982611f70565b610718576040517f08c379a000000000000000000000000000000000000000000000000000000000815260040161070f906147a8565b60405180910390fd5b6006600083815260200190815260200160002060009054906101000a900473ffffffffffffffffffffffffffffffffffffffff169050919050565b600061075e826113e9565b90508073ffffffffffffffffffffffffffffffffffffffff168373ffffffffffffffffffffffffffffffffffffffff1614156107cf576040517f08c379a00000000000000000000000000000000000000000000000000000000081526004016107c690614808565b60405180910390fd5b8073ffffffffffffffffffffffffffffffffffffffff166107ee611fdc565b73ffffffffffffffffffffffffffffffffffffffff16148061081d575061081c81610817611fdc565b611e24565b5b61085c576040517f08c379a000000000000000000000000000000000000000000000000000000000815260040161085390614728565b60405180910390fd5b6108668383611fe4565b505050565b600e6020528060005260406000206000915090508060000160009054906101000a90046fffffffffffffffffffffffffffffffff16908060000160109054906101000a90046fffffffffffffffffffffffffffffffff16908060010180546108d290614ca7565b80601f01602080910402602001604051908101604052809291908181526020018280546108fe90614ca7565b801561094b5780601f106109205761010080835404028352916020019161094b565b820191906000526020600020905b81548152906001019060200180831161092e57829003601f168201915b50505050509080600201805461096090614ca7565b80601f016020809104026020016040519081016040528092919081815260200182805461098c90614ca7565b80156109d95780601f106109ae576101008083540402835291602001916109d9565b820191906000526020600020905b8154815290600101906020018083116109bc57829003601f168201915b5050505050908060030180546109ee90614ca7565b80601f0160208091040260200160405190810160405280929190818152602001828054610a1a90614ca7565b8015610a675780601f10610a3c57610100808354040283529160200191610a67565b820191906000526020600020905b815481529060010190602001808311610a4a57829003601f168201915b505050505090806004018054610a7c90614ca7565b80601f0160208091040260200160405190810160405280929190818152602001828054610aa890614ca7565b8015610af55780601f10610aca57610100808354040283529160200191610af5565b820191906000526020600020905b815481529060010190602001808311610ad857829003601f168201915b505050505090806005018054610b0a90614ca7565b80601f0160208091040260200160405190810160405280929190818152602001828054610b3690614ca7565b8015610b835780601f10610b5857610100808354040283529160200191610b83565b820191906000526020600020905b815481529060010190602001808311610b6657829003601f168201915b505050505090806006018054610b9890614ca7565b80601f0160208091040260200160405190810160405280929190818152602001828054610bc490614ca7565b8015610c115780601f10610be657610100808354040283529160200191610c11565b820191906000526020600020905b815481529060010190602001808311610bf457829003601f168201915b505050505090806007018054610c2690614ca7565b80601f0160208091040260200160405190810160405280929190818152602001828054610c5290614ca7565b8015610c9f5780601f10610c7457610100808354040283529160200191610c9f565b820191906000526020600020905b815481529060010190602001808311610c8257829003601f168201915b5050505050905089565b6000600a80549050905090565b610cc7610cc1611fdc565b8261209d565b610d06576040517f08c379a0000000000000000000000000000000000000000000000000000000008152600401610cfd90614828565b60405180910390fd5b610d1183838361217b565b505050565b6000806000838152602001908152602001600020600101549050919050565b610d3f82826123d7565b610d648160016000858152602001908152602001600020611ec690919063ffffffff16565b505050565b6000610d7483611524565b8210610db5576040517f08c379a0000000000000000000000000000000000000000000000000000000008152600401610dac90614668565b60405180910390fd5b600860008473ffffffffffffffffffffffffffffffffffffffff1673ffffffffffffffffffffffffffffffffffffffff168152602001908152602001600020600083815260200190815260200160002054905092915050565b6000610e1983611f70565b610e2657600090506112f8565b6000600e6000858152602001908152602001600020604051806101200160405290816000820160009054906101000a90046fffffffffffffffffffffffffffffffff166fffffffffffffffffffffffffffffffff166fffffffffffffffffffffffffffffffff1681526020016000820160109054906101000a90046fffffffffffffffffffffffffffffffff166fffffffffffffffffffffffffffffffff166fffffffffffffffffffffffffffffffff168152602001600182018054610eeb90614ca7565b80601f0160208091040260200160405190810160405280929190818152602001828054610f1790614ca7565b8015610f645780601f10610f3957610100808354040283529160200191610f64565b820191906000526020600020905b815481529060010190602001808311610f4757829003601f168201915b50505050508152602001600282018054610f7d90614ca7565b80601f0160208091040260200160405190810160405280929190818152602001828054610fa990614ca7565b8015610ff65780601f10610fcb57610100808354040283529160200191610ff6565b820191906000526020600020905b815481529060010190602001808311610fd957829003601f168201915b5050505050815260200160038201805461100f90614ca7565b80601f016020809104026020016040519081016040528092919081815260200182805461103b90614ca7565b80156110885780601f1061105d57610100808354040283529160200191611088565b820191906000526020600020905b81548152906001019060200180831161106b57829003601f168201915b505050505081526020016004820180546110a190614ca7565b80601f01602080910402602001604051908101604052809291908181526020018280546110cd90614ca7565b801561111a5780601f106110ef5761010080835404028352916020019161111a565b820191906000526020600020905b8154815290600101906020018083116110fd57829003601f168201915b5050505050815260200160058201805461113390614ca7565b80601f016020809104026020016040519081016040528092919081815260200182805461115f90614ca7565b80156111ac5780601f10611181576101008083540402835291602001916111ac565b820191906000526020600020905b81548152906001019060200180831161118f57829003601f168201915b505050505081526020016006820180546111c590614ca7565b80601f01602080910402602001604051908101604052809291908181526020018280546111f190614ca7565b801561123e5780601f106112135761010080835404028352916020019161123e565b820191906000526020600020905b81548152906001019060200180831161122157829003601f168201915b5050505050815260200160078201805461125790614ca7565b80601f016020809104026020016040519081016040528092919081815260200182805461128390614ca7565b80156112d05780601f106112a5576101008083540402835291602001916112d0565b820191906000526020600020905b8154815290600101906020018083116112b357829003601f168201915b50505050508152505090508281600001516fffffffffffffffffffffffffffffffff16149150505b92915050565b6113088282612400565b61132d816001600085815260200190815260200160002061248390919063ffffffff16565b505050565b61134d8383836040518060200160405280600081525061188f565b505050565b600061135c610ca9565b821061139d576040517f08c379a000000000000000000000000000000000000000000000000000000000815260040161139490614848565b60405180910390fd5b600a82815481106113d7577f4e487b7100000000000000000000000000000000000000000000000000000000600052603260045260246000fd5b90600052602060002001549050919050565b6000806004600084815260200190815260200160002060009054906101000a900473ffffffffffffffffffffffffffffffffffffffff169050600073ffffffffffffffffffffffffffffffffffffffff168173ffffffffffffffffffffffffffffffffffffffff161415611492576040517f08c379a000000000000000000000000000000000000000000000000000000000815260040161148990614768565b60405180910390fd5b80915050919050565b6000801b6114b0816114ab611fdc565b6124b3565b816040516114be91906144fd565b6040518091039020600d6040516114d59190614538565b60405180910390207f8df4f488121a100577506716b83a42d04585c6b7b93941484c5b63b503e1806d60405160405180910390a381600d908051906020019061151f9291906139f6565b505050565b60008073ffffffffffffffffffffffffffffffffffffffff168273ffffffffffffffffffffffffffffffffffffffff161415611595576040517f08c379a000000000000000000000000000000000000000000000000000000000815260040161158c90614748565b60405180910390fd5b600560008373ffffffffffffffffffffffffffffffffffffffff1673ffffffffffffffffffffffffffffffffffffffff168152602001908152602001600020549050919050565b6000611603826001600086815260200190815260200160002061255090919063ffffffff16565b905092915050565b600080600084815260200190815260200160002060000160008373ffffffffffffffffffffffffffffffffffffffff1673ffffffffffffffffffffffffffffffffffffffff16815260200190815260200160002060009054906101000a900460ff16905092915050565b60606003805461168490614ca7565b80601f01602080910402602001604051908101604052809291908181526020018280546116b090614ca7565b80156116fd5780601f106116d2576101008083540402835291602001916116fd565b820191906000526020600020905b8154815290600101906020018083116116e057829003601f168201915b5050505050905090565b6000801b81565b611716611fdc565b73ffffffffffffffffffffffffffffffffffffffff168273ffffffffffffffffffffffffffffffffffffffff161415611784576040517f08c379a000000000000000000000000000000000000000000000000000000000815260040161177b906146e8565b60405180910390fd5b8060076000611791611fdc565b73ffffffffffffffffffffffffffffffffffffffff1673ffffffffffffffffffffffffffffffffffffffff16815260200190815260200160002060008473ffffffffffffffffffffffffffffffffffffffff1673ffffffffffffffffffffffffffffffffffffffff16815260200190815260200160002060006101000a81548160ff0219169083151502179055508173ffffffffffffffffffffffffffffffffffffffff1661183e611fdc565b73ffffffffffffffffffffffffffffffffffffffff167f17307eab39ab6107e8899845ad3d59bd9653f200f220920489ca2b5937696c318360405161188391906145f0565b60405180910390a35050565b6118a061189a611fdc565b8361209d565b6118df576040517f08c379a00000000000000000000000000000000000000000000000000000000081526004016118d690614828565b60405180910390fd5b6118eb8484848461256a565b50505050565b60606118fc82611f70565b61193b576040517f08c379a0000000000000000000000000000000000000000000000000000000008152600401611932906147e8565b60405180910390fd5b60006119456125c6565b905060008151116119655760405180602001604052806000815250611990565b8061196f84612658565b604051602001611980929190614514565b6040516020818303038152906040525b915050919050565b60006119b560016000848152602001908152602001600020612805565b9050919050565b7f9f2df0fed2c77648de5860a4cc508cd0818c85b8b8a1ab4ceeef8d981c8956a681565b6119ea828261281a565b611a0f816001600085815260200190815260200160002061248390919063ffffffff16565b505050565b7f9f2df0fed2c77648de5860a4cc508cd0818c85b8b8a1ab4ceeef8d981c8956a6611a4681611a41611fdc565b6124b3565b6000611a52600c612843565b9050611a5e8682612851565b60405180610120016040528085600060028110611aa4577f4e487b7100000000000000000000000000000000000000000000000000000000600052603260045260246000fd5b60200201516fffffffffffffffffffffffffffffffff16815260200185600160028110611afa577f4e487b7100000000000000000000000000000000000000000000000000000000600052603260045260246000fd5b60200201516fffffffffffffffffffffffffffffffff16815260200186815260200184600060068110611b56577f4e487b7100000000000000000000000000000000000000000000000000000000600052603260045260246000fd5b6020020151815260200184600160068110611b9a577f4e487b7100000000000000000000000000000000000000000000000000000000600052603260045260246000fd5b6020020151815260200184600260068110611bde577f4e487b7100000000000000000000000000000000000000000000000000000000600052603260045260246000fd5b6020020151815260200184600360068110611c22577f4e487b7100000000000000000000000000000000000000000000000000000000600052603260045260246000fd5b6020020151815260200184600460068110611c66577f4e487b7100000000000000000000000000000000000000000000000000000000600052603260045260246000fd5b6020020151815260200184600560068110611caa577f4e487b7100000000000000000000000000000000000000000000000000000000600052603260045260246000fd5b6020020151815250600e600083815260200190815260200160002060008201518160000160006101000a8154816fffffffffffffffffffffffffffffffff02191690836fffffffffffffffffffffffffffffffff16021790555060208201518160000160106101000a8154816fffffffffffffffffffffffffffffffff02191690836fffffffffffffffffffffffffffffffff1602179055506040820151816001019080519060200190611d5f9291906139f6565b506060820151816002019080519060200190611d7c9291906139f6565b506080820151816003019080519060200190611d999291906139f6565b5060a0820151816004019080519060200190611db69291906139f6565b5060c0820151816005019080519060200190611dd39291906139f6565b5060e0820151816006019080519060200190611df09291906139f6565b50610100820151816007019080519060200190611e0e9291906139f6565b50905050611e1c600c612a1f565b505050505050565b6000600760008473ffffffffffffffffffffffffffffffffffffffff1673ffffffffffffffffffffffffffffffffffffffff16815260200190815260200160002060008373ffffffffffffffffffffffffffffffffffffffff1673ffffffffffffffffffffffffffffffffffffffff16815260200190815260200160002060009054906101000a900460ff16905092915050565b611ec28282612a35565b5050565b6000611eee836000018373ffffffffffffffffffffffffffffffffffffffff1660001b612b15565b905092915050565b60007f780e9d63000000000000000000000000000000000000000000000000000000007bffffffffffffffffffffffffffffffffffffffffffffffffffffffff1916827bffffffffffffffffffffffffffffffffffffffffffffffffffffffff19161480611f695750611f6882612b85565b5b9050919050565b60008073ffffffffffffffffffffffffffffffffffffffff166004600084815260200190815260200160002060009054906101000a900473ffffffffffffffffffffffffffffffffffffffff1673ffffffffffffffffffffffffffffffffffffffff1614159050919050565b600033905090565b816006600083815260200190815260200160002060006101000a81548173ffffffffffffffffffffffffffffffffffffffff021916908373ffffffffffffffffffffffffffffffffffffffff160217905550808273ffffffffffffffffffffffffffffffffffffffff16612057836113e9565b73ffffffffffffffffffffffffffffffffffffffff167f8c5be1e5ebec7d5bd14f71427d1e84f3dd0314c0f7b2291e5b200ac8c7c3b92560405160405180910390a45050565b60006120a882611f70565b6120e7576040517f08c379a00000000000000000000000000000000000000000000000000000000081526004016120de90614708565b60405180910390fd5b60006120f2836113e9565b90508073ffffffffffffffffffffffffffffffffffffffff168473ffffffffffffffffffffffffffffffffffffffff16148061216157508373ffffffffffffffffffffffffffffffffffffffff16612149846106ce565b73ffffffffffffffffffffffffffffffffffffffff16145b8061217257506121718185611e24565b5b91505092915050565b8273ffffffffffffffffffffffffffffffffffffffff1661219b826113e9565b73ffffffffffffffffffffffffffffffffffffffff16146121f1576040517f08c379a00000000000000000000000000000000000000000000000000000000081526004016121e8906147c8565b60405180910390fd5b600073ffffffffffffffffffffffffffffffffffffffff168273ffffffffffffffffffffffffffffffffffffffff161415612261576040517f08c379a0000000000000000000000000000000000000000000000000000000008152600401612258906146c8565b60405180910390fd5b61226c838383612c67565b612277600082611fe4565b6001600560008573ffffffffffffffffffffffffffffffffffffffff1673ffffffffffffffffffffffffffffffffffffffff16815260200190815260200160002060008282546122c79190614b6d565b925050819055506001600560008473ffffffffffffffffffffffffffffffffffffffff1673ffffffffffffffffffffffffffffffffffffffff168152602001908152602001600020600082825461231e9190614a8c565b92505081905550816004600083815260200190815260200160002060006101000a81548173ffffffffffffffffffffffffffffffffffffffff021916908373ffffffffffffffffffffffffffffffffffffffff160217905550808273ffffffffffffffffffffffffffffffffffffffff168473ffffffffffffffffffffffffffffffffffffffff167fddf252ad1be2c89b69c2b068fc378daa952ba7f163c4a11628f55a4df523b3ef60405160405180910390a4505050565b6123e082610d16565b6123f1816123ec611fdc565b6124b3565b6123fb8383612a35565b505050565b612408611fdc565b73ffffffffffffffffffffffffffffffffffffffff168173ffffffffffffffffffffffffffffffffffffffff1614612475576040517f08c379a000000000000000000000000000000000000000000000000000000000815260040161246c90614868565b60405180910390fd5b61247f8282612c77565b5050565b60006124ab836000018373ffffffffffffffffffffffffffffffffffffffff1660001b612d58565b905092915050565b6124bd828261160b565b61254c576124e28173ffffffffffffffffffffffffffffffffffffffff166014612ede565b6124f08360001c6020612ede565b60405160200161250192919061454f565b6040516020818303038152906040526040517f08c379a00000000000000000000000000000000000000000000000000000000081526004016125439190614626565b60405180910390fd5b5050565b600061255f83600001836131d8565b60001c905092915050565b61257584848461217b565b61258184848484613229565b6125c0576040517f08c379a00000000000000000000000000000000000000000000000000000000081526004016125b790614688565b60405180910390fd5b50505050565b6060600d80546125d590614ca7565b80601f016020809104026020016040519081016040528092919081815260200182805461260190614ca7565b801561264e5780601f106126235761010080835404028352916020019161264e565b820191906000526020600020905b81548152906001019060200180831161263157829003601f168201915b5050505050905090565b606060008214156126a0576040518060400160405280600181526020017f30000000000000000000000000000000000000000000000000000000000000008152509050612800565b600082905060005b600082146126d25780806126bb90614d0a565b915050600a826126cb9190614ae2565b91506126a8565b60008167ffffffffffffffff811115612714577f4e487b7100000000000000000000000000000000000000000000000000000000600052604160045260246000fd5b6040519080825280601f01601f1916602001820160405280156127465781602001600182028036833780820191505090505b5090505b600085146127f95760018261275f9190614b6d565b9150600a8561276e9190614d53565b603061277a9190614a8c565b60f81b8183815181106127b6577f4e487b7100000000000000000000000000000000000000000000000000000000600052603260045260246000fd5b60200101907effffffffffffffffffffffffffffffffffffffffffffffffffffffffffffff1916908160001a905350600a856127f29190614ae2565b945061274a565b8093505050505b919050565b6000612813826000016133c0565b9050919050565b61282382610d16565b6128348161282f611fdc565b6124b3565b61283e8383612c77565b505050565b600081600001549050919050565b600073ffffffffffffffffffffffffffffffffffffffff168273ffffffffffffffffffffffffffffffffffffffff1614156128c1576040517f08c379a00000000000000000000000000000000000000000000000000000000081526004016128b890614788565b60405180910390fd5b6128ca81611f70565b1561290a576040517f08c379a0000000000000000000000000000000000000000000000000000000008152600401612901906146a8565b60405180910390fd5b61291660008383612c67565b6001600560008473ffffffffffffffffffffffffffffffffffffffff1673ffffffffffffffffffffffffffffffffffffffff16815260200190815260200160002060008282546129669190614a8c565b92505081905550816004600083815260200190815260200160002060006101000a81548173ffffffffffffffffffffffffffffffffffffffff021916908373ffffffffffffffffffffffffffffffffffffffff160217905550808273ffffffffffffffffffffffffffffffffffffffff16600073ffffffffffffffffffffffffffffffffffffffff167fddf252ad1be2c89b69c2b068fc378daa952ba7f163c4a11628f55a4df523b3ef60405160405180910390a45050565b6001816000016000828254019250508190555050565b612a3f828261160b565b612b1157600160008084815260200190815260200160002060000160008373ffffffffffffffffffffffffffffffffffffffff1673ffffffffffffffffffffffffffffffffffffffff16815260200190815260200160002060006101000a81548160ff021916908315150217905550612ab6611fdc565b73ffffffffffffffffffffffffffffffffffffffff168173ffffffffffffffffffffffffffffffffffffffff16837f2f8788117e7eff1d82e926ec794901d17c78024a50270940304540a733656f0d60405160405180910390a45b5050565b6000612b2183836133d1565b612b7a578260000182908060018154018082558091505060019003906000526020600020016000909190919091505582600001805490508360010160008481526020019081526020016000208190555060019050612b7f565b600090505b92915050565b60007f80ac58cd000000000000000000000000000000000000000000000000000000007bffffffffffffffffffffffffffffffffffffffffffffffffffffffff1916827bffffffffffffffffffffffffffffffffffffffffffffffffffffffff19161480612c5057507f5b5e139f000000000000000000000000000000000000000000000000000000007bffffffffffffffffffffffffffffffffffffffffffffffffffffffff1916827bffffffffffffffffffffffffffffffffffffffffffffffffffffffff1916145b80612c605750612c5f826133f4565b5b9050919050565b612c7283838361346e565b505050565b612c81828261160b565b15612d5457600080600084815260200190815260200160002060000160008373ffffffffffffffffffffffffffffffffffffffff1673ffffffffffffffffffffffffffffffffffffffff16815260200190815260200160002060006101000a81548160ff021916908315150217905550612cf9611fdc565b73ffffffffffffffffffffffffffffffffffffffff168173ffffffffffffffffffffffffffffffffffffffff16837ff6391f5c32d9c69d2a47ea670b442974b53935d1edc7fd64eb21e047a839171b60405160405180910390a45b5050565b60008083600101600084815260200190815260200160002054905060008114612ed2576000600182612d8a9190614b6d565b9050600060018660000180549050612da29190614b6d565b9050818114612e5d576000866000018281548110612de9577f4e487b7100000000000000000000000000000000000000000000000000000000600052603260045260246000fd5b9060005260206000200154905080876000018481548110612e33577f4e487b7100000000000000000000000000000000000000000000000000000000600052603260045260246000fd5b90600052602060002001819055508387600101600083815260200190815260200160002081905550505b85600001805480612e97577f4e487b7100000000000000000000000000000000000000000000000000000000600052603160045260246000fd5b600190038181906000526020600020016000905590558560010160008681526020019081526020016000206000905560019350505050612ed8565b60009150505b92915050565b606060006002836002612ef19190614b13565b612efb9190614a8c565b67ffffffffffffffff811115612f3a577f4e487b7100000000000000000000000000000000000000000000000000000000600052604160045260246000fd5b6040519080825280601f01601f191660200182016040528015612f6c5781602001600182028036833780820191505090505b5090507f300000000000000000000000000000000000000000000000000000000000000081600081518110612fca577f4e487b7100000000000000000000000000000000000000000000000000000000600052603260045260246000fd5b60200101907effffffffffffffffffffffffffffffffffffffffffffffffffffffffffffff1916908160001a9053507f780000000000000000000000000000000000000000000000000000000000000081600181518110613054577f4e487b7100000000000000000000000000000000000000000000000000000000600052603260045260246000fd5b60200101907effffffffffffffffffffffffffffffffffffffffffffffffffffffffffffff1916908160001a905350600060018460026130949190614b13565b61309e9190614a8c565b90505b600181111561318a577f3031323334353637383961626364656600000000000000000000000000000000600f861660108110613106577f4e487b7100000000000000000000000000000000000000000000000000000000600052603260045260246000fd5b1a60f81b828281518110613143577f4e487b7100000000000000000000000000000000000000000000000000000000600052603260045260246000fd5b60200101907effffffffffffffffffffffffffffffffffffffffffffffffffffffffffffff1916908160001a905350600485901c94508061318390614c7d565b90506130a1565b50600084146131ce576040517f08c379a00000000000000000000000000000000000000000000000000000000081526004016131c590614648565b60405180910390fd5b8091505092915050565b6000826000018281548110613216577f4e487b7100000000000000000000000000000000000000000000000000000000600052603260045260246000fd5b9060005260206000200154905092915050565b600061324a8473ffffffffffffffffffffffffffffffffffffffff16613582565b156133b3578373ffffffffffffffffffffffffffffffffffffffff1663150b7a02613273611fdc565b8786866040518563ffffffff1660e01b815260040161329594939291906145a4565b602060405180830381600087803b1580156132af57600080fd5b505af19250505080156132e057506040513d601f19601f820116820180604052508101906132dd9190614005565b60015b613363573d8060008114613310576040519150601f19603f3d011682016040523d82523d6000602084013e613315565b606091505b5060008151141561335b576040517f08c379a000000000000000000000000000000000000000000000000000000000815260040161335290614688565b60405180910390fd5b805181602001fd5b63150b7a0260e01b7bffffffffffffffffffffffffffffffffffffffffffffffffffffffff1916817bffffffffffffffffffffffffffffffffffffffffffffffffffffffff1916149150506133b8565b600190505b949350505050565b600081600001805490509050919050565b600080836001016000848152602001908152602001600020541415905092915050565b60007f5a05180f000000000000000000000000000000000000000000000000000000007bffffffffffffffffffffffffffffffffffffffffffffffffffffffff1916827bffffffffffffffffffffffffffffffffffffffffffffffffffffffff19161480613467575061346682613595565b5b9050919050565b61347983838361360f565b600073ffffffffffffffffffffffffffffffffffffffff168373ffffffffffffffffffffffffffffffffffffffff1614156134bc576134b781613614565b6134fb565b8173ffffffffffffffffffffffffffffffffffffffff168373ffffffffffffffffffffffffffffffffffffffff16146134fa576134f9838261365d565b5b5b600073ffffffffffffffffffffffffffffffffffffffff168273ffffffffffffffffffffffffffffffffffffffff16141561353e57613539816137ca565b61357d565b8273ffffffffffffffffffffffffffffffffffffffff168273ffffffffffffffffffffffffffffffffffffffff161461357c5761357b828261390d565b5b5b505050565b600080823b905060008111915050919050565b60007f7965db0b000000000000000000000000000000000000000000000000000000007bffffffffffffffffffffffffffffffffffffffffffffffffffffffff1916827bffffffffffffffffffffffffffffffffffffffffffffffffffffffff1916148061360857506136078261398c565b5b9050919050565b505050565b600a80549050600b600083815260200190815260200160002081905550600a81908060018154018082558091505060019003906000526020600020016000909190919091505550565b6000600161366a84611524565b6136749190614b6d565b9050600060096000848152602001908152602001600020549050818114613759576000600860008673ffffffffffffffffffffffffffffffffffffffff1673ffffffffffffffffffffffffffffffffffffffff168152602001908152602001600020600084815260200190815260200160002054905080600860008773ffffffffffffffffffffffffffffffffffffffff1673ffffffffffffffffffffffffffffffffffffffff168152602001908152602001600020600084815260200190815260200160002081905550816009600083815260200190815260200160002081905550505b6009600084815260200190815260200160002060009055600860008573ffffffffffffffffffffffffffffffffffffffff1673ffffffffffffffffffffffffffffffffffffffff16815260200190815260200160002060008381526020019081526020016000206000905550505050565b60006001600a805490506137de9190614b6d565b90506000600b60008481526020019081526020016000205490506000600a8381548110613834577f4e487b7100000000000000000000000000000000000000000000000000000000600052603260045260246000fd5b9060005260206000200154905080600a838154811061387c577f4e487b7100000000000000000000000000000000000000000000000000000000600052603260045260246000fd5b906000526020600020018190555081600b600083815260200190815260200160002081905550600b600085815260200190815260200160002060009055600a8054806138f1577f4e487b7100000000000000000000000000000000000000000000000000000000600052603160045260246000fd5b6001900381819060005260206000200160009055905550505050565b600061391883611524565b905081600860008573ffffffffffffffffffffffffffffffffffffffff1673ffffffffffffffffffffffffffffffffffffffff168152602001908152602001600020600083815260200190815260200160002081905550806009600084815260200190815260200160002081905550505050565b60007f01ffc9a7000000000000000000000000000000000000000000000000000000007bffffffffffffffffffffffffffffffffffffffffffffffffffffffff1916827bffffffffffffffffffffffffffffffffffffffffffffffffffffffff1916149050919050565b828054613a0290614ca7565b90600052602060002090601f016020900481019282613a245760008555613a6b565b82601f10613a3d57805160ff1916838001178555613a6b565b82800160010185558215613a6b579182015b82811115613a6a578251825591602001919060010190613a4f565b5b509050613a789190613a7c565b5090565b5b80821115613a95576000816000905550600101613a7d565b5090565b6000613aac613aa784614986565b614961565b9050808260005b85811015613ae35781358501613ac98882613cad565b845260208401935060208301925050600181019050613ab3565b5050509392505050565b6000613b00613afb846149ac565b614961565b90508082856020860282011115613b1657600080fd5b60005b85811015613b465781613b2c8882613cd7565b845260208401935060208301925050600181019050613b19565b5050509392505050565b6000613b63613b5e846149d2565b614961565b905082815260208101848484011115613b7b57600080fd5b613b86848285614c3b565b509392505050565b6000613ba1613b9c84614a03565b614961565b905082815260208101848484011115613bb957600080fd5b613bc4848285614c3b565b509392505050565b600081359050613bdb81615399565b92915050565b600082601f830112613bf257600080fd5b6006613bff848285613a99565b91505092915050565b600082601f830112613c1957600080fd5b6002613c26848285613aed565b91505092915050565b600081359050613c3e816153b0565b92915050565b600081359050613c53816153c7565b92915050565b600081359050613c68816153de565b92915050565b600081519050613c7d816153de565b92915050565b600082601f830112613c9457600080fd5b8135613ca4848260208601613b50565b91505092915050565b600082601f830112613cbe57600080fd5b8135613cce848260208601613b8e565b91505092915050565b600081359050613ce6816153f5565b92915050565b600081359050613cfb8161540c565b92915050565b600060208284031215613d1357600080fd5b6000613d2184828501613bcc565b91505092915050565b60008060408385031215613d3d57600080fd5b6000613d4b85828601613bcc565b9250506020613d5c85828601613bcc565b9150509250929050565b600080600060608486031215613d7b57600080fd5b6000613d8986828701613bcc565b9350506020613d9a86828701613bcc565b9250506040613dab86828701613cec565b9150509250925092565b60008060008060808587031215613dcb57600080fd5b6000613dd987828801613bcc565b9450506020613dea87828801613bcc565b9350506040613dfb87828801613cec565b925050606085013567ffffffffffffffff811115613e1857600080fd5b613e2487828801613c83565b91505092959194509250565b60008060408385031215613e4357600080fd5b6000613e5185828601613bcc565b9250506020613e6285828601613c2f565b9150509250929050565b60008060008060a08587031215613e8257600080fd5b6000613e9087828801613bcc565b945050602085013567ffffffffffffffff811115613ead57600080fd5b613eb987828801613cad565b9350506040613eca87828801613c08565b925050608085013567ffffffffffffffff811115613ee757600080fd5b613ef387828801613be1565b91505092959194509250565b60008060408385031215613f1257600080fd5b6000613f2085828601613bcc565b9250506020613f3185828601613cec565b9150509250929050565b600060208284031215613f4d57600080fd5b6000613f5b84828501613c44565b91505092915050565b60008060408385031215613f7757600080fd5b6000613f8585828601613c44565b9250506020613f9685828601613bcc565b9150509250929050565b60008060408385031215613fb357600080fd5b6000613fc185828601613c44565b9250506020613fd285828601613cec565b9150509250929050565b600060208284031215613fee57600080fd5b6000613ffc84828501613c59565b91505092915050565b60006020828403121561401757600080fd5b600061402584828501613c6e565b91505092915050565b60006020828403121561404057600080fd5b600082013567ffffffffffffffff81111561405a57600080fd5b61406684828501613cad565b91505092915050565b60006020828403121561408157600080fd5b600061408f84828501613cec565b91505092915050565b600080604083850312156140ab57600080fd5b60006140b985828601613cec565b92505060206140ca85828601613cec565b9150509250929050565b6140dd81614ba1565b82525050565b6140ec81614bb3565b82525050565b6140fb81614bbf565b82525050565b600061410c82614a49565b6141168185614a5f565b9350614126818560208601614c4a565b61412f81614e40565b840191505092915050565b600061414582614a54565b61414f8185614a70565b935061415f818560208601614c4a565b61416881614e40565b840191505092915050565b600061417e82614a54565b6141888185614a81565b9350614198818560208601614c4a565b80840191505092915050565b600081546141b181614ca7565b6141bb8186614a81565b945060018216600081146141d657600181146141e75761421a565b60ff1983168652818601935061421a565b6141f085614a34565b60005b83811015614212578154818901526001820191506020810190506141f3565b838801955050505b50505092915050565b6000614230602083614a70565b915061423b82614e51565b602082019050919050565b6000614253602b83614a70565b915061425e82614e7a565b604082019050919050565b6000614276603283614a70565b915061428182614ec9565b604082019050919050565b6000614299601c83614a70565b91506142a482614f18565b602082019050919050565b60006142bc602483614a70565b91506142c782614f41565b604082019050919050565b60006142df601983614a70565b91506142ea82614f90565b602082019050919050565b6000614302602c83614a70565b915061430d82614fb9565b604082019050919050565b6000614325603883614a70565b915061433082615008565b604082019050919050565b6000614348602a83614a70565b915061435382615057565b604082019050919050565b600061436b602983614a70565b9150614376826150a6565b604082019050919050565b600061438e602083614a70565b9150614399826150f5565b602082019050919050565b60006143b1602c83614a70565b91506143bc8261511e565b604082019050919050565b60006143d4602983614a70565b91506143df8261516d565b604082019050919050565b60006143f7602f83614a70565b9150614402826151bc565b604082019050919050565b600061441a602183614a70565b91506144258261520b565b604082019050919050565b600061443d603183614a70565b91506144488261525a565b604082019050919050565b6000614460602c83614a70565b915061446b826152a9565b604082019050919050565b6000614483601783614a81565b915061448e826152f8565b601782019050919050565b60006144a6601183614a81565b91506144b182615321565b601182019050919050565b60006144c9602f83614a70565b91506144d48261534a565b604082019050919050565b6144e881614bf5565b82525050565b6144f781614c31565b82525050565b60006145098284614173565b915081905092915050565b60006145208285614173565b915061452c8284614173565b91508190509392505050565b600061454482846141a4565b915081905092915050565b600061455a82614476565b91506145668285614173565b915061457182614499565b915061457d8284614173565b91508190509392505050565b600060208201905061459e60008301846140d4565b92915050565b60006080820190506145b960008301876140d4565b6145c660208301866140d4565b6145d360408301856144ee565b81810360608301526145e58184614101565b905095945050505050565b600060208201905061460560008301846140e3565b92915050565b600060208201905061462060008301846140f2565b92915050565b60006020820190508181036000830152614640818461413a565b905092915050565b6000602082019050818103600083015261466181614223565b9050919050565b6000602082019050818103600083015261468181614246565b9050919050565b600060208201905081810360008301526146a181614269565b9050919050565b600060208201905081810360008301526146c18161428c565b9050919050565b600060208201905081810360008301526146e1816142af565b9050919050565b60006020820190508181036000830152614701816142d2565b9050919050565b60006020820190508181036000830152614721816142f5565b9050919050565b6000602082019050818103600083015261474181614318565b9050919050565b600060208201905081810360008301526147618161433b565b9050919050565b600060208201905081810360008301526147818161435e565b9050919050565b600060208201905081810360008301526147a181614381565b9050919050565b600060208201905081810360008301526147c1816143a4565b9050919050565b600060208201905081810360008301526147e1816143c7565b9050919050565b60006020820190508181036000830152614801816143ea565b9050919050565b600060208201905081810360008301526148218161440d565b9050919050565b6000602082019050818103600083015261484181614430565b9050919050565b6000602082019050818103600083015261486181614453565b9050919050565b60006020820190508181036000830152614881816144bc565b9050919050565b60006101208201905061489e600083018c6144df565b6148ab602083018b6144df565b81810360408301526148bd818a61413a565b905081810360608301526148d1818961413a565b905081810360808301526148e5818861413a565b905081810360a08301526148f9818761413a565b905081810360c083015261490d818661413a565b905081810360e0830152614921818561413a565b9050818103610100830152614936818461413a565b90509a9950505050505050505050565b600060208201905061495b60008301846144ee565b92915050565b600061496b61497c565b90506149778282614cd9565b919050565b6000604051905090565b600067ffffffffffffffff8211156149a1576149a0614e11565b5b602082029050919050565b600067ffffffffffffffff8211156149c7576149c6614e11565b5b602082029050919050565b600067ffffffffffffffff8211156149ed576149ec614e11565b5b6149f682614e40565b9050602081019050919050565b600067ffffffffffffffff821115614a1e57614a1d614e11565b5b614a2782614e40565b9050602081019050919050565b60008190508160005260206000209050919050565b600081519050919050565b600081519050919050565b600082825260208201905092915050565b600082825260208201905092915050565b600081905092915050565b6000614a9782614c31565b9150614aa283614c31565b9250827fffffffffffffffffffffffffffffffffffffffffffffffffffffffffffffffff03821115614ad757614ad6614d84565b5b828201905092915050565b6000614aed82614c31565b9150614af883614c31565b925082614b0857614b07614db3565b5b828204905092915050565b6000614b1e82614c31565b9150614b2983614c31565b9250817fffffffffffffffffffffffffffffffffffffffffffffffffffffffffffffffff0483118215151615614b6257614b61614d84565b5b828202905092915050565b6000614b7882614c31565b9150614b8383614c31565b925082821015614b9657614b95614d84565b5b828203905092915050565b6000614bac82614c11565b9050919050565b60008115159050919050565b6000819050919050565b60007fffffffff0000000000000000000000000000000000000000000000000000000082169050919050565b60006fffffffffffffffffffffffffffffffff82169050919050565b600073ffffffffffffffffffffffffffffffffffffffff82169050919050565b6000819050919050565b82818337600083830152505050565b60005b83811015614c68578082015181840152602081019050614c4d565b83811115614c77576000848401525b50505050565b6000614c8882614c31565b91506000821415614c9c57614c9b614d84565b5b600182039050919050565b60006002820490506001821680614cbf57607f821691505b60208210811415614cd357614cd2614de2565b5b50919050565b614ce282614e40565b810181811067ffffffffffffffff82111715614d0157614d00614e11565b5b80604052505050565b6000614d1582614c31565b91507fffffffffffffffffffffffffffffffffffffffffffffffffffffffffffffffff821415614d4857614d47614d84565b5b600182019050919050565b6000614d5e82614c31565b9150614d6983614c31565b925082614d7957614d78614db3565b5b828206905092915050565b7f4e487b7100000000000000000000000000000000000000000000000000000000600052601160045260246000fd5b7f4e487b7100000000000000000000000000000000000000000000000000000000600052601260045260246000fd5b7f4e487b7100000000000000000000000000000000000000000000000000000000600052602260045260246000fd5b7f4e487b7100000000000000000000000000000000000000000000000000000000600052604160045260246000fd5b6000601f19601f8301169050919050565b7f537472696e67733a20686578206c656e67746820696e73756666696369656e74600082015250565b7f455243373231456e756d657261626c653a206f776e657220696e646578206f7560008201527f74206f6620626f756e6473000000000000000000000000000000000000000000602082015250565b7f4552433732313a207472616e7366657220746f206e6f6e20455243373231526560008201527f63656976657220696d706c656d656e7465720000000000000000000000000000602082015250565b7f4552433732313a20746f6b656e20616c7265616479206d696e74656400000000600082015250565b7f4552433732313a207472616e7366657220746f20746865207a65726f2061646460008201527f7265737300000000000000000000000000000000000000000000000000000000602082015250565b7f4552433732313a20617070726f766520746f2063616c6c657200000000000000600082015250565b7f4552433732313a206f70657261746f7220717565727920666f72206e6f6e657860008201527f697374656e7420746f6b656e0000000000000000000000000000000000000000602082015250565b7f4552433732313a20617070726f76652063616c6c6572206973206e6f74206f7760008201527f6e6572206e6f7220617070726f76656420666f7220616c6c0000000000000000602082015250565b7f4552433732313a2062616c616e636520717565727920666f7220746865207a6560008201527f726f206164647265737300000000000000000000000000000000000000000000602082015250565b7f4552433732313a206f776e657220717565727920666f72206e6f6e657869737460008201527f656e7420746f6b656e0000000000000000000000000000000000000000000000602082015250565b7f4552433732313a206d696e7420746f20746865207a65726f2061646472657373600082015250565b7f4552433732313a20617070726f76656420717565727920666f72206e6f6e657860008201527f697374656e7420746f6b656e0000000000000000000000000000000000000000602082015250565b7f4552433732313a207472616e73666572206f6620746f6b656e2074686174206960008201527f73206e6f74206f776e0000000000000000000000000000000000000000000000602082015250565b7f4552433732314d657461646174613a2055524920717565727920666f72206e6f60008201527f6e6578697374656e7420746f6b656e0000000000000000000000000000000000602082015250565b7f4552433732313a20617070726f76616c20746f2063757272656e74206f776e6560008201527f7200000000000000000000000000000000000000000000000000000000000000602082015250565b7f4552433732313a207472616e736665722063616c6c6572206973206e6f74206f60008201527f776e6572206e6f7220617070726f766564000000000000000000000000000000602082015250565b7f455243373231456e756d657261626c653a20676c6f62616c20696e646578206f60008201527f7574206f6620626f756e64730000000000000000000000000000000000000000602082015250565b7f416363657373436f6e74726f6c3a206163636f756e7420000000000000000000600082015250565b7f206973206d697373696e6720726f6c6520000000000000000000000000000000600082015250565b7f416363657373436f6e74726f6c3a2063616e206f6e6c792072656e6f756e636560008201527f20726f6c657320666f722073656c660000000000000000000000000000000000602082015250565b6153a281614ba1565b81146153ad57600080fd5b50565b6153b981614bb3565b81146153c457600080fd5b50565b6153d081614bbf565b81146153db57600080fd5b50565b6153e781614bc9565b81146153f257600080fd5b50565b6153fe81614bf5565b811461540957600080fd5b50565b61541581614c31565b811461542057600080fd5b5056fea26469706673582212204a10dbb6d4c880d488c2eca4ddb3c0883e11f2bea704c3ef1cfa54f0c9d25a8c64736f6c63430008030033",
  "immutableReferences": {},
  "source": "// SPDX-License-Identifier: MIT\npragma solidity 0.8.3;\n\n/*\n * ApeSwap Finance\n * App:             https://apeswap.finance\n * Medium:          https://ape-swap.medium.com\n * Twitter:         https://twitter.com/ape_swap\n * Telegram:        https://t.me/ape_swap\n * Announcements:   https://t.me/ape_swap_news\n * GitHub:          https://github.com/ApeSwapFinance \n */\n\nimport \"@openzeppelin/contracts/token/ERC721/ERC721.sol\";\nimport \"@openzeppelin/contracts/token/ERC721/extensions/ERC721Enumerable.sol\";\nimport \"@openzeppelin/contracts/access/AccessControlEnumerable.sol\";\nimport \"@openzeppelin/contracts/utils/Context.sol\";\nimport \"@openzeppelin/contracts/utils/Counters.sol\";\n\ncontract NonFungibleApesV2 is Context, AccessControlEnumerable, ERC721Enumerable {\n    using Counters for Counters.Counter;\n\n    bytes32 public constant MINTER_ROLE = keccak256(\"MINTER_ROLE\");\n\n    Counters.Counter private _tokenIdTracker;\n\n    string private _baseTokenURI;\n    /// @notice Collection of NFA details to describe each NFA\n    struct NFADetails {\n        uint128 rarityTier;\n        uint128 rarityOverall;\n        string name;\n        string faceColor;\n        string baseColor;\n        string frame;\n        string mouth;\n        string eyes;\n        string hat;\n    }\n    /// @notice Use the NFA tokenId to read NFA details\n    mapping(uint256 => NFADetails) public getNFADetailsById;\n\n    event UpdateBaseURI(string indexed previousBaseUri, string indexed newBaseUri);\n\n    constructor(string memory name, string memory symbol, string memory baseTokenURI) ERC721(name, symbol) {\n        _baseTokenURI = baseTokenURI;\n\n        _setupRole(DEFAULT_ADMIN_ROLE, _msgSender());\n        _setupRole(MINTER_ROLE, _msgSender());\n    }\n\n    /// @notice Check if the NFA of a specific ID is of a specific rarityTier\n    /// @param tokenId The ID of the NFA to check\n    /// @param rarityTier The rarityTier to check against the tokenId\n    /// @return (bool) \n    function isNfaOfRarityTier(uint256 tokenId, uint256 rarityTier) external view returns (bool) {\n        if(!_exists(tokenId)) {\n            return false;\n        }\n        NFADetails memory currentNFADetails = getNFADetailsById[tokenId];\n        return currentNFADetails.rarityTier == rarityTier;\n    }\n\n    /// @notice Update the baseTokenURI of the NFT\n    /// @dev The admin of this function is expected to renounce ownership once the base url has been tested and is working\n    /// @param baseTokenURI The new bse uri for the contract\n    function updateBaseTokenURI(string memory baseTokenURI) external onlyRole(DEFAULT_ADMIN_ROLE) {\n        emit UpdateBaseURI(_baseTokenURI, baseTokenURI);\n        _baseTokenURI = baseTokenURI;\n    }\n\n    /// @notice mint a new NFA to an address\n    /// @dev must be called by an account with MINTER_ROLE\n    /// @param to Address to mint the NFA to\n    /// @param name Name of the NFA\n    /// @param rarities Array of rarity details\n    ///   rarities[0] rarityTier\n    ///   rarities[1] rarityOverall\n    /// @param attributes Array of string values which represent the attributes of the NFA\n    ///   attributes[0] faceColor\n    ///   attributes[1] baseColor\n    ///   attributes[2] frame\n    ///   attributes[3] mouth\n    ///   attributes[4] eyes\n    ///   attributes[5] hat\n    function mint(\n        address to, \n        string memory name, \n        uint128[2] memory rarities, \n        string[6] memory attributes\n    ) public virtual onlyRole(MINTER_ROLE) {\n        uint256 currentTokenId = _tokenIdTracker.current();\n        _mint(to, currentTokenId);\n        getNFADetailsById[currentTokenId] = NFADetails(\n            rarities[0], // rarityTier\n            rarities[1], // rarityOverall\n            name,\n            attributes[0], // faceColor\n            attributes[1], // baseColor\n            attributes[2], // frame\n            attributes[3], // mouth\n            attributes[4], // eyes\n            attributes[5]  // hat\n        );\n        _tokenIdTracker.increment();\n    }\n\n    function _baseURI() internal view virtual override returns (string memory) {\n        return _baseTokenURI;\n    }\n\n    function _beforeTokenTransfer(address from, address to, uint256 tokenId) internal virtual override(ERC721Enumerable) {\n        super._beforeTokenTransfer(from, to, tokenId);\n    }\n\n    function supportsInterface(bytes4 interfaceId) public view virtual override(AccessControlEnumerable, ERC721Enumerable) returns (bool) {\n        return super.supportsInterface(interfaceId);\n    }\n}",
  "sourcePath": "/Users/defifofum/Code/ApeSwap/non-fungible-apes/contracts/NonFungibleApesV2.sol",
  "compiler": {
    "name": "solc",
    "version": "0.8.3+commit.8d00100c.Emscripten.clang"
  },
  "schemaVersion": "3.4.3",
  "updatedAt": "2021-10-28T04:13:12.453Z",
  "networkType": "ethereum",
  "devdoc": {
    "kind": "dev",
    "methods": {
      "approve(address,uint256)": {
        "details": "See {IERC721-approve}."
      },
      "balanceOf(address)": {
        "details": "See {IERC721-balanceOf}."
      },
      "getApproved(uint256)": {
        "details": "See {IERC721-getApproved}."
      },
      "getRoleAdmin(bytes32)": {
        "details": "Returns the admin role that controls `role`. See {grantRole} and {revokeRole}. To change a role's admin, use {_setRoleAdmin}."
      },
      "getRoleMember(bytes32,uint256)": {
        "details": "Returns one of the accounts that have `role`. `index` must be a value between 0 and {getRoleMemberCount}, non-inclusive. Role bearers are not sorted in any particular way, and their ordering may change at any point. WARNING: When using {getRoleMember} and {getRoleMemberCount}, make sure you perform all queries on the same block. See the following https://forum.openzeppelin.com/t/iterating-over-elements-on-enumerableset-in-openzeppelin-contracts/2296[forum post] for more information."
      },
      "getRoleMemberCount(bytes32)": {
        "details": "Returns the number of accounts that have `role`. Can be used together with {getRoleMember} to enumerate all bearers of a role."
      },
      "grantRole(bytes32,address)": {
        "details": "Overload {grantRole} to track enumerable memberships"
      },
      "hasRole(bytes32,address)": {
        "details": "Returns `true` if `account` has been granted `role`."
      },
      "isApprovedForAll(address,address)": {
        "details": "See {IERC721-isApprovedForAll}."
      },
      "isNfaOfRarityTier(uint256,uint256)": {
        "params": {
          "rarityTier": "The rarityTier to check against the tokenId",
          "tokenId": "The ID of the NFA to check"
        },
        "returns": {
          "_0": "(bool) "
        }
      },
      "mint(address,string,uint128[2],string[6])": {
        "details": "must be called by an account with MINTER_ROLE",
        "params": {
          "attributes": "Array of string values which represent the attributes of the NFA   attributes[0] faceColor   attributes[1] baseColor   attributes[2] frame   attributes[3] mouth   attributes[4] eyes   attributes[5] hat",
          "name": "Name of the NFA",
          "rarities": "Array of rarity details   rarities[0] rarityTier   rarities[1] rarityOverall",
          "to": "Address to mint the NFA to"
        }
      },
      "name()": {
        "details": "See {IERC721Metadata-name}."
      },
      "ownerOf(uint256)": {
        "details": "See {IERC721-ownerOf}."
      },
      "renounceRole(bytes32,address)": {
        "details": "Overload {renounceRole} to track enumerable memberships"
      },
      "revokeRole(bytes32,address)": {
        "details": "Overload {revokeRole} to track enumerable memberships"
      },
      "safeTransferFrom(address,address,uint256)": {
        "details": "See {IERC721-safeTransferFrom}."
      },
      "safeTransferFrom(address,address,uint256,bytes)": {
        "details": "See {IERC721-safeTransferFrom}."
      },
      "setApprovalForAll(address,bool)": {
        "details": "See {IERC721-setApprovalForAll}."
      },
      "symbol()": {
        "details": "See {IERC721Metadata-symbol}."
      },
      "tokenByIndex(uint256)": {
        "details": "See {IERC721Enumerable-tokenByIndex}."
      },
      "tokenOfOwnerByIndex(address,uint256)": {
        "details": "See {IERC721Enumerable-tokenOfOwnerByIndex}."
      },
      "tokenURI(uint256)": {
        "details": "See {IERC721Metadata-tokenURI}."
      },
      "totalSupply()": {
        "details": "See {IERC721Enumerable-totalSupply}."
      },
      "transferFrom(address,address,uint256)": {
        "details": "See {IERC721-transferFrom}."
      },
      "updateBaseTokenURI(string)": {
        "details": "The admin of this function is expected to renounce ownership once the base url has been tested and is working",
        "params": {
          "baseTokenURI": "The new bse uri for the contract"
        }
      }
    },
    "version": 1
  },
  "userdoc": {
    "kind": "user",
    "methods": {
      "getNFADetailsById(uint256)": {
        "notice": "Use the NFA tokenId to read NFA details"
      },
      "isNfaOfRarityTier(uint256,uint256)": {
        "notice": "Check if the NFA of a specific ID is of a specific rarityTier"
      },
      "mint(address,string,uint128[2],string[6])": {
        "notice": "mint a new NFA to an address"
      },
      "updateBaseTokenURI(string)": {
        "notice": "Update the baseTokenURI of the NFT"
      }
    },
    "version": 1
  }
}